{
  "_format": "hh-sol-artifact-1",
  "contractName": "Blockchain",
  "sourceName": "contracts/blockchain.sol",
  "abi": [
    {
      "inputs": [
        {
          "internalType": "string",
          "name": "description",
          "type": "string"
        }
      ],
      "stateMutability": "nonpayable",
      "type": "constructor"
    },
    {
      "anonymous": false,
      "inputs": [
        {
          "indexed": false,
          "internalType": "uint256",
          "name": "blockNumber",
          "type": "uint256"
        },
        {
          "indexed": false,
          "internalType": "string",
          "name": "caseID",
          "type": "string"
        },
        {
          "indexed": false,
          "internalType": "string",
          "name": "hash",
          "type": "string"
        }
      ],
      "name": "BlockAdded",
      "type": "event"
    },
    {
      "anonymous": false,
      "inputs": [
        {
          "indexed": true,
          "internalType": "address",
          "name": "account",
          "type": "address"
        },
        {
          "indexed": false,
          "internalType": "enum Blockchain.Role",
          "name": "role",
          "type": "uint8"
        }
      ],
      "name": "RoleAssigned",
      "type": "event"
    },
    {
      "inputs": [
        {
          "internalType": "string",
          "name": "previousHash",
          "type": "string"
        },
        {
          "internalType": "uint256",
          "name": "timestamp",
          "type": "uint256"
        },
        {
          "internalType": "string",
          "name": "caseID",
          "type": "string"
        },
        {
          "internalType": "string",
          "name": "description",
          "type": "string"
        }
      ],
      "name": "addBlock",
      "outputs": [],
      "stateMutability": "nonpayable",
      "type": "function"
    },
    {
      "inputs": [
        {
          "internalType": "address",
          "name": "account",
          "type": "address"
        },
        {
          "internalType": "enum Blockchain.Role",
          "name": "role",
          "type": "uint8"
        }
      ],
      "name": "addRole",
      "outputs": [],
      "stateMutability": "nonpayable",
      "type": "function"
    },
    {
      "inputs": [
        {
          "internalType": "uint256",
          "name": "",
          "type": "uint256"
        }
      ],
      "name": "chain",
      "outputs": [
        {
          "internalType": "uint256",
          "name": "blockNumber",
          "type": "uint256"
        },
        {
          "internalType": "string",
          "name": "previousHash",
          "type": "string"
        },
        {
          "internalType": "uint256",
          "name": "timestamp",
          "type": "uint256"
        },
        {
          "internalType": "string",
          "name": "caseID",
          "type": "string"
        },
        {
          "internalType": "string",
          "name": "description",
          "type": "string"
        },
        {
          "internalType": "string",
          "name": "hash",
          "type": "string"
        }
      ],
      "stateMutability": "view",
      "type": "function"
    },
    {
      "inputs": [
        {
          "internalType": "uint256",
          "name": "index",
          "type": "uint256"
        }
      ],
      "name": "getBlock",
      "outputs": [
        {
          "components": [
            {
              "internalType": "uint256",
              "name": "blockNumber",
              "type": "uint256"
            },
            {
              "internalType": "string",
              "name": "previousHash",
              "type": "string"
            },
            {
              "internalType": "uint256",
              "name": "timestamp",
              "type": "uint256"
            },
            {
              "internalType": "string",
              "name": "caseID",
              "type": "string"
            },
            {
              "internalType": "string",
              "name": "description",
              "type": "string"
            },
            {
              "internalType": "string",
              "name": "hash",
              "type": "string"
            }
          ],
          "internalType": "struct Blockchain.Block",
          "name": "",
          "type": "tuple"
        }
      ],
      "stateMutability": "view",
      "type": "function"
    },
    {
      "inputs": [],
      "name": "getChainLength",
      "outputs": [
        {
          "internalType": "uint256",
          "name": "",
          "type": "uint256"
        }
      ],
      "stateMutability": "view",
      "type": "function"
    },
    {
      "inputs": [
        {
          "internalType": "address",
          "name": "",
          "type": "address"
        }
      ],
      "name": "roles",
      "outputs": [
        {
          "internalType": "enum Blockchain.Role",
          "name": "",
          "type": "uint8"
        }
      ],
      "stateMutability": "view",
      "type": "function"
    }
  ],
  "bytecode": "0x60806040523480156200001157600080fd5b506040516200277d3803806200277d833981810160405281019062000037919062000736565b60018060003373ffffffffffffffffffffffffffffffffffffffff1673ffffffffffffffffffffffffffffffffffffffff16815260200190815260200160002060006101000a81548160ff02191690836001811115620000c0577f4e487b7100000000000000000000000000000000000000000000000000000000600052602160045260246000fd5b021790555060006200012b60006040518060800160405280604281526020016200273b60429139426040518060400160405280600781526020017f47454e455349530000000000000000000000000000000000000000000000000081525086620002aa60201b60201c565b905060006040518060c00160405280600081526020016040518060800160405280604281526020016200273b6042913981526020014281526020016040518060400160405280600781526020017f47454e45534953000000000000000000000000000000000000000000000000008152508152602001848152602001838152509080600181540180825580915050600190039060005260206000209060060201600090919091909150600082015181600001556020820151816001019080519060200190620001fc92919062000614565b506040820151816002015560608201518160030190805190602001906200022592919062000614565b5060808201518160040190805190602001906200024492919062000614565b5060a08201518160050190805190602001906200026392919062000614565b5050507f5f3e607693b52c3643af7b2361f321086b8756f1a9d6930d853c8d36cc695aa86000826040516200029a929190620008be565b60405180910390a1505062000bd3565b6060620002ed8686868686604051602001620002cb95949392919062000861565b60405160208183030381529060405280519060200120620002f860201b60201c565b905095945050505050565b606060006040518060400160405280601081526020017f303132333435363738396162636465660000000000000000000000000000000081525090506000604067ffffffffffffffff81111562000378577f4e487b7100000000000000000000000000000000000000000000000000000000600052604160045260246000fd5b6040519080825280601f01601f191660200182016040528015620003ab5781602001600182028036833780820191505090505b50905060005b60208110156200060957826004868360208110620003f8577f4e487b7100000000000000000000000000000000000000000000000000000000600052603260045260246000fd5b1a60f81b7effffffffffffffffffffffffffffffffffffffffffffffffffffffffffffff1916901c60f81c60ff16815181106200045e577f4e487b7100000000000000000000000000000000000000000000000000000000600052603260045260246000fd5b602001015160f81c60f81b82600283620004799190620009f2565b81518110620004b1577f4e487b7100000000000000000000000000000000000000000000000000000000600052603260045260246000fd5b60200101907effffffffffffffffffffffffffffffffffffffffffffffffffffffffffffff1916908160001a90535082600f60f81b86836020811062000520577f4e487b7100000000000000000000000000000000000000000000000000000000600052603260045260246000fd5b1a60f81b1660f81c60ff168151811062000563577f4e487b7100000000000000000000000000000000000000000000000000000000600052603260045260246000fd5b602001015160f81c60f81b826002836200057e9190620009f2565b60016200058c919062000995565b81518110620005c4577f4e487b7100000000000000000000000000000000000000000000000000000000600052603260045260246000fd5b60200101907effffffffffffffffffffffffffffffffffffffffffffffffffffffffffffff1916908160001a9053508080620006009062000add565b915050620003b1565b508092505050919050565b828054620006229062000aa7565b90600052602060002090601f01602090048101928262000646576000855562000692565b82601f106200066157805160ff191683800117855562000692565b8280016001018555821562000692579182015b828111156200069157825182559160200191906001019062000674565b5b509050620006a19190620006a5565b5090565b5b80821115620006c0576000816000905550600101620006a6565b5090565b6000620006db620006d5846200093b565b62000907565b905082815260208101848484011115620006f457600080fd5b6200070184828562000a71565b509392505050565b600082601f8301126200071b57600080fd5b81516200072d848260208601620006c4565b91505092915050565b6000602082840312156200074957600080fd5b600082015167ffffffffffffffff8111156200076457600080fd5b620007728482850162000709565b91505092915050565b620007868162000a5d565b82525050565b600062000799826200096e565b620007a5818562000979565b9350620007b781856020860162000a71565b620007c28162000bc2565b840191505092915050565b6000620007da826200096e565b620007e681856200098a565b9350620007f881856020860162000a71565b80840191505092915050565b60006200081360078362000979565b91507f47454e45534953000000000000000000000000000000000000000000000000006000830152602082019050919050565b6200085b620008558262000a53565b62000b2b565b82525050565b60006200086f828862000846565b602082019150620008818287620007cd565b91506200088f828662000846565b602082019150620008a18285620007cd565b9150620008af8284620007cd565b91508190509695505050505050565b6000606082019050620008d560008301856200077b565b8181036020830152620008e88162000804565b90508181036040830152620008fe81846200078c565b90509392505050565b6000604051905081810181811067ffffffffffffffff8211171562000931576200093062000b93565b5b8060405250919050565b600067ffffffffffffffff82111562000959576200095862000b93565b5b601f19601f8301169050602081019050919050565b600081519050919050565b600082825260208201905092915050565b600081905092915050565b6000620009a28262000a53565b9150620009af8362000a53565b9250827fffffffffffffffffffffffffffffffffffffffffffffffffffffffffffffffff03821115620009e757620009e662000b35565b5b828201905092915050565b6000620009ff8262000a53565b915062000a0c8362000a53565b9250817fffffffffffffffffffffffffffffffffffffffffffffffffffffffffffffffff048311821515161562000a485762000a4762000b35565b5b828202905092915050565b6000819050919050565b600062000a6a8262000a53565b9050919050565b60005b8381101562000a9157808201518184015260208101905062000a74565b8381111562000aa1576000848401525b50505050565b6000600282049050600182168062000ac057607f821691505b6020821081141562000ad75762000ad662000b64565b5b50919050565b600062000aea8262000a53565b91507fffffffffffffffffffffffffffffffffffffffffffffffffffffffffffffffff82141562000b205762000b1f62000b35565b5b600182019050919050565b6000819050919050565b7f4e487b7100000000000000000000000000000000000000000000000000000000600052601160045260246000fd5b7f4e487b7100000000000000000000000000000000000000000000000000000000600052602260045260246000fd5b7f4e487b7100000000000000000000000000000000000000000000000000000000600052604160045260246000fd5b6000601f19601f8301169050919050565b611b588062000be36000396000f3fe608060405234801561001057600080fd5b50600436106100625760003560e01c806304c075691461006757806344deb6f3146100975780635852cc0c146100b35780635c32ccc0146100e85780638f2bab07146101045780639937464214610122575b600080fd5b610081600480360381019061007c9190611201565b610152565b60405161008e919061164a565b60405180910390f35b6100b160048036038101906100ac919061111a565b610457565b005b6100cd60048036038101906100c89190611201565b61066a565b6040516100df969594939291906116cc565b60405180910390f35b61010260048036038101906100fd9190611156565b6108d6565b005b61010c610bf7565b604051610119919061166c565b60405180910390f35b61013c600480360381019061013791906110f1565b610c03565b60405161014991906115af565b60405180910390f35b61015a610f71565b60008054905082106101a1576040517f08c379a00000000000000000000000000000000000000000000000000000000081526004016101989061160a565b60405180910390fd5b600082815481106101db577f4e487b7100000000000000000000000000000000000000000000000000000000600052603260045260246000fd5b90600052602060002090600602016040518060c00160405290816000820154815260200160018201805461020e9061197e565b80601f016020809104026020016040519081016040528092919081815260200182805461023a9061197e565b80156102875780601f1061025c57610100808354040283529160200191610287565b820191906000526020600020905b81548152906001019060200180831161026a57829003601f168201915b50505050508152602001600282015481526020016003820180546102aa9061197e565b80601f01602080910402602001604051908101604052809291908181526020018280546102d69061197e565b80156103235780601f106102f857610100808354040283529160200191610323565b820191906000526020600020905b81548152906001019060200180831161030657829003601f168201915b5050505050815260200160048201805461033c9061197e565b80601f01602080910402602001604051908101604052809291908181526020018280546103689061197e565b80156103b55780601f1061038a576101008083540402835291602001916103b5565b820191906000526020600020905b81548152906001019060200180831161039857829003601f168201915b505050505081526020016005820180546103ce9061197e565b80601f01602080910402602001604051908101604052809291908181526020018280546103fa9061197e565b80156104475780601f1061041c57610100808354040283529160200191610447565b820191906000526020600020905b81548152906001019060200180831161042a57829003601f168201915b5050505050815250509050919050565b3073ffffffffffffffffffffffffffffffffffffffff163373ffffffffffffffffffffffffffffffffffffffff16148061054c57506001808111156104c5577f4e487b7100000000000000000000000000000000000000000000000000000000600052602160045260246000fd5b600160003373ffffffffffffffffffffffffffffffffffffffff1673ffffffffffffffffffffffffffffffffffffffff16815260200190815260200160002060009054906101000a900460ff16600181111561054a577f4e487b7100000000000000000000000000000000000000000000000000000000600052602160045260246000fd5b145b61058b576040517f08c379a0000000000000000000000000000000000000000000000000000000008152600401610582906115ea565b60405180910390fd5b80600160008473ffffffffffffffffffffffffffffffffffffffff1673ffffffffffffffffffffffffffffffffffffffff16815260200190815260200160002060006101000a81548160ff02191690836001811115610613577f4e487b7100000000000000000000000000000000000000000000000000000000600052602160045260246000fd5b02179055508173ffffffffffffffffffffffffffffffffffffffff167f4ac36fa53f167ceb85964be512e01de2a3b8bdb9862f917da079deeeff689b388260405161065e91906115af565b60405180910390a25050565b6000818154811061067a57600080fd5b90600052602060002090600602016000915090508060000154908060010180546106a39061197e565b80601f01602080910402602001604051908101604052809291908181526020018280546106cf9061197e565b801561071c5780601f106106f15761010080835404028352916020019161071c565b820191906000526020600020905b8154815290600101906020018083116106ff57829003601f168201915b5050505050908060020154908060030180546107379061197e565b80601f01602080910402602001604051908101604052809291908181526020018280546107639061197e565b80156107b05780601f10610785576101008083540402835291602001916107b0565b820191906000526020600020905b81548152906001019060200180831161079357829003601f168201915b5050505050908060040180546107c59061197e565b80601f01602080910402602001604051908101604052809291908181526020018280546107f19061197e565b801561083e5780601f106108135761010080835404028352916020019161083e565b820191906000526020600020905b81548152906001019060200180831161082157829003601f168201915b5050505050908060050180546108539061197e565b80601f016020809104026020016040519081016040528092919081815260200182805461087f9061197e565b80156108cc5780601f106108a1576101008083540402835291602001916108cc565b820191906000526020600020905b8154815290600101906020018083116108af57829003601f168201915b5050505050905086565b60018081111561090f577f4e487b7100000000000000000000000000000000000000000000000000000000600052602160045260246000fd5b600160003373ffffffffffffffffffffffffffffffffffffffff1673ffffffffffffffffffffffffffffffffffffffff16815260200190815260200160002060009054906101000a900460ff166001811115610994577f4e487b7100000000000000000000000000000000000000000000000000000000600052602160045260246000fd5b146109d4576040517f08c379a00000000000000000000000000000000000000000000000000000000081526004016109cb906115ca565b60405180910390fd5b600080805490509050846040516020016109ee919061152e565b604051602081830303815290604052805190602001206000600183610a1391906118a7565b81548110610a4a577f4e487b7100000000000000000000000000000000000000000000000000000000600052603260045260246000fd5b9060005260206000209060060201600501604051602001610a6b9190611545565b6040516020818303038152906040528051906020012014610ac1576040517f08c379a0000000000000000000000000000000000000000000000000000000008152600401610ab89061162a565b60405180910390fd5b6000610ad08287878787610c23565b905060006040518060c00160405280848152602001888152602001878152602001868152602001858152602001838152509080600181540180825580915050600190039060005260206000209060060201600090919091909150600082015181600001556020820151816001019080519060200190610b50929190610fa7565b50604082015181600201556060820151816003019080519060200190610b77929190610fa7565b506080820151816004019080519060200190610b94929190610fa7565b5060a0820151816005019080519060200190610bb1929190610fa7565b5050507f5f3e607693b52c3643af7b2361f321086b8756f1a9d6930d853c8d36cc695aa8828583604051610be793929190611687565b60405180910390a1505050505050565b60008080549050905090565b60016020528060005260406000206000915054906101000a900460ff1681565b6060610c5c8686868686604051602001610c4195949392919061155c565b60405160208183030381529060405280519060200120610c67565b905095945050505050565b606060006040518060400160405280601081526020017f303132333435363738396162636465660000000000000000000000000000000081525090506000604067ffffffffffffffff811115610ce6577f4e487b7100000000000000000000000000000000000000000000000000000000600052604160045260246000fd5b6040519080825280601f01601f191660200182016040528015610d185781602001600182028036833780820191505090505b50905060005b6020811015610f6657826004868360208110610d63577f4e487b7100000000000000000000000000000000000000000000000000000000600052603260045260246000fd5b1a60f81b7effffffffffffffffffffffffffffffffffffffffffffffffffffffffffffff1916901c60f81c60ff1681518110610dc8577f4e487b7100000000000000000000000000000000000000000000000000000000600052603260045260246000fd5b602001015160f81c60f81b82600283610de1919061184d565b81518110610e18577f4e487b7100000000000000000000000000000000000000000000000000000000600052603260045260246000fd5b60200101907effffffffffffffffffffffffffffffffffffffffffffffffffffffffffffff1916908160001a90535082600f60f81b868360208110610e86577f4e487b7100000000000000000000000000000000000000000000000000000000600052603260045260246000fd5b1a60f81b1660f81c60ff1681518110610ec8577f4e487b7100000000000000000000000000000000000000000000000000000000600052603260045260246000fd5b602001015160f81c60f81b82600283610ee1919061184d565b6001610eed91906117f7565b81518110610f24577f4e487b7100000000000000000000000000000000000000000000000000000000600052603260045260246000fd5b60200101907effffffffffffffffffffffffffffffffffffffffffffffffffffffffffffff1916908160001a9053508080610f5e906119b0565b915050610d1e565b508092505050919050565b6040518060c001604052806000815260200160608152602001600081526020016060815260200160608152602001606081525090565b828054610fb39061197e565b90600052602060002090601f016020900481019282610fd5576000855561101c565b82601f10610fee57805160ff191683800117855561101c565b8280016001018555821561101c579182015b8281111561101b578251825591602001919060010190611000565b5b509050611029919061102d565b5090565b5b8082111561104657600081600090555060010161102e565b5090565b600061105d6110588461177a565b611749565b90508281526020810184848401111561107557600080fd5b61108084828561193c565b509392505050565b60008135905061109781611ae4565b92915050565b6000813590506110ac81611afb565b92915050565b600082601f8301126110c357600080fd5b81356110d384826020860161104a565b91505092915050565b6000813590506110eb81611b0b565b92915050565b60006020828403121561110357600080fd5b600061111184828501611088565b91505092915050565b6000806040838503121561112d57600080fd5b600061113b85828601611088565b925050602061114c8582860161109d565b9150509250929050565b6000806000806080858703121561116c57600080fd5b600085013567ffffffffffffffff81111561118657600080fd5b611192878288016110b2565b94505060206111a3878288016110dc565b935050604085013567ffffffffffffffff8111156111c057600080fd5b6111cc878288016110b2565b925050606085013567ffffffffffffffff8111156111e957600080fd5b6111f5878288016110b2565b91505092959194509250565b60006020828403121561121357600080fd5b6000611221848285016110dc565b91505092915050565b6112338161192a565b82525050565b6000611244826117bf565b61124e81856117ca565b935061125e81856020860161194b565b61126781611abf565b840191505092915050565b600061127d826117bf565b61128781856117db565b935061129781856020860161194b565b6112a081611abf565b840191505092915050565b60006112b6826117bf565b6112c081856117ec565b93506112d081856020860161194b565b80840191505092915050565b600081546112e98161197e565b6112f381866117ec565b9450600182166000811461130e576001811461131f57611352565b60ff19831686528186019350611352565b611328856117aa565b60005b8381101561134a5781548189015260018201915060208101905061132b565b838801955050505b50505092915050565b6000611368601c836117db565b91507f4e6f7420617574686f72697a656420746f2061646420626c6f636b73000000006000830152602082019050919050565b60006113a8601b836117db565b91507f4f6e6c7920636f6e74726163742063616e2061646420726f6c657300000000006000830152602082019050919050565b60006113e86018836117db565b91507f426c6f636b20696e646578206f7574206f662072616e676500000000000000006000830152602082019050919050565b60006114286015836117db565b91507f496e76616c69642070726576696f7573206861736800000000000000000000006000830152602082019050919050565b600060c08301600083015161147360008601826114f9565b506020830151848203602086015261148b8282611239565b91505060408301516114a060408601826114f9565b50606083015184820360608601526114b88282611239565b915050608083015184820360808601526114d28282611239565b91505060a083015184820360a08601526114ec8282611239565b9150508091505092915050565b61150281611920565b82525050565b61151181611920565b82525050565b61152861152382611920565b6119f9565b82525050565b600061153a82846112ab565b915081905092915050565b600061155182846112dc565b915081905092915050565b60006115688288611517565b60208201915061157882876112ab565b91506115848286611517565b60208201915061159482856112ab565b91506115a082846112ab565b91508190509695505050505050565b60006020820190506115c4600083018461122a565b92915050565b600060208201905081810360008301526115e38161135b565b9050919050565b600060208201905081810360008301526116038161139b565b9050919050565b60006020820190508181036000830152611623816113db565b9050919050565b600060208201905081810360008301526116438161141b565b9050919050565b60006020820190508181036000830152611664818461145b565b905092915050565b60006020820190506116816000830184611508565b92915050565b600060608201905061169c6000830186611508565b81810360208301526116ae8185611272565b905081810360408301526116c28184611272565b9050949350505050565b600060c0820190506116e16000830189611508565b81810360208301526116f38188611272565b90506117026040830187611508565b81810360608301526117148186611272565b905081810360808301526117288185611272565b905081810360a083015261173c8184611272565b9050979650505050505050565b6000604051905081810181811067ffffffffffffffff821117156117705761176f611a90565b5b8060405250919050565b600067ffffffffffffffff82111561179557611794611a90565b5b601f19601f8301169050602081019050919050565b60008190508160005260206000209050919050565b600081519050919050565b600082825260208201905092915050565b600082825260208201905092915050565b600081905092915050565b600061180282611920565b915061180d83611920565b9250827fffffffffffffffffffffffffffffffffffffffffffffffffffffffffffffffff0382111561184257611841611a03565b5b828201905092915050565b600061185882611920565b915061186383611920565b9250817fffffffffffffffffffffffffffffffffffffffffffffffffffffffffffffffff048311821515161561189c5761189b611a03565b5b828202905092915050565b60006118b282611920565b91506118bd83611920565b9250828210156118d0576118cf611a03565b5b828203905092915050565b60006118e682611900565b9050919050565b60008190506118fb82611ad0565b919050565b600073ffffffffffffffffffffffffffffffffffffffff82169050919050565b6000819050919050565b6000611935826118ed565b9050919050565b82818337600083830152505050565b60005b8381101561196957808201518184015260208101905061194e565b83811115611978576000848401525b50505050565b6000600282049050600182168061199657607f821691505b602082108114156119aa576119a9611a61565b5b50919050565b60006119bb82611920565b91507fffffffffffffffffffffffffffffffffffffffffffffffffffffffffffffffff8214156119ee576119ed611a03565b5b600182019050919050565b6000819050919050565b7f4e487b7100000000000000000000000000000000000000000000000000000000600052601160045260246000fd5b7f4e487b7100000000000000000000000000000000000000000000000000000000600052602160045260246000fd5b7f4e487b7100000000000000000000000000000000000000000000000000000000600052602260045260246000fd5b7f4e487b7100000000000000000000000000000000000000000000000000000000600052604160045260246000fd5b6000601f19601f8301169050919050565b60028110611ae157611ae0611a32565b5b50565b611aed816118db565b8114611af857600080fd5b50565b60028110611b0857600080fd5b50565b611b1481611920565b8114611b1f57600080fd5b5056fea26469706673582212205b4748280c26560d9c11beb60a3f5c9d7566613a54b3a845b2855d2238ea614964736f6c63430008000033307830303030303030303030303030303030303030303030303030303030303030303030303030303030303030303030303030303030303030303030303030303030",
  "linkReferences": {},
  "deployedLinkReferences": {}
}